:020000040800F2
:1000000010B5054C237833B9044B13B10448AFF352
:1000100000800123237010BD74090020000000003F
:10002000BC2C000808B5034B1BB103490348AFF3D0
:10003000008008BD0000000078090020BC2C0008EA
:10004000002A01D002F5807A704700BF162031A146
:10005000ABBE30484168002901D0364A11600168C2
:10006000002901D1324901608168C2682A4B002908
:1000700000D00B469D46FFF7E3FF00218B460F465D
:100080002648274A121A00F08BF800F04FFD152081
:100090002649ABBE25490968002001B40B7801311F
:1000A000002B15D0202BF9D0222B01D0272B01D1EA
:1000B0001A0001E02022013902B401300B7801312D
:1000C000002B05D09A42F9D100224B1E1A70E5E7A9
:1000D0006946020092006A446B469A4206D9043A85
:1000E00014681D6815601C600433F6E76C4607252C
:1000F000AC43A54604000D000A48002802D00A4877
:1001000000F00CF900F028F82000290000F0CEFEE5
:1001100000F012F804000020000000007409002024
:100120009C0A00201D030008290300081401002078
:10013000A01A00204C05002008B50021044600F05C
:100140008BF8044B1868C36B03B19847204600F046
:100150007DFE00BF2C2C000870B50D4E0D4D761B9A
:10016000B61006D0002455F8043B01349847A64247
:10017000F9D1094E094D02F095FD761BB61006D057
:10018000002455F8043B01349847A642F9D170BDCC
:10019000000000000000000000000000000000005F
:1001A000830730B548D0541E002A3FD00346CAB258
:1001B00001E0013C3AD303F8012B9D07F9D1032C50
:1001C0002DD9CDB245EA05250F2C45EA054536D98E
:1001D000A4F1100222F00F0C03F1200EE6444FEAC6
:1001E000121C03F1100242E9045542E90255103293
:1001F0007245F8D10CF1010214F00C0F03EB02125E
:1002000004F00F0C13D0ACF1040323F00303043308
:10021000134442F8045B9342FBD10CF003042CB16D
:10022000CAB21C4403F8012B9C42FBD130BD64468A
:100230001346002CF4D1F9E703461446BFE71A46EB
:10024000A446E0E7024B13B1024800F067B87047DC
:1002500000000000290300082DE9F04F83462D4BD4
:1002600083B018680F46CDF804B000F07DF82A4B33
:10027000D3F80080D8F848619EB14FF001094FF0E3
:10028000000A7468651E0CD4013406EB84047FB147
:10029000D4F80031BB420BD0013D6B1CA4F1040427
:1002A000F5D11C4B186803B0BDE8F04F00F064B8FE
:1002B00073682268013BAB420CBF7560C4F800A0B4
:1002C000002AE9D0D6F8880109FA05F10142D6F8EA
:1002D00004B00BD1904772685A4512D1D8F8483112
:1002E000B342D9D01E46002ECBD1DAE7D6F88C0126
:1002F00001420BD10198D4F88010904772685A459A
:10030000ECD0D8F84861002EBBD1CAE7D4F8800001
:100310009047E0E7480500202C2C00080023014608
:100320001A46184600F02AB838B5084B084D5B1B32
:100330009C1007D0043B1D44013C55F804399847F4
:10034000002CF9D1BDE8384002F0B2BC000000003A
:1003500000000000704700BF704700BF704700BF3B
:10036000704700BF704700BF704700BF0120704753
:1003700001207047704700BF704700BF2DE9F0476C
:10038000DFF87CA00646DAF8000098460F46914652
:10039000FFF7EAFF1B4B1B68D3F8484124B365689D
:1003A0001F2D26DC5EB96B1C0235DAF80000636095
:1003B00044F82570FFF7E0FF0020BDE8F087012337
:1003C00004EB8501C1F88890D4F88821AB401A432A
:1003D000022EC4F88821C1F80881E4D1D4F88C2118
:1003E0001343C4F88C31DEE703F5A674C3F8484123
:1003F000D5E7DAF80000FFF7BFFF4FF0FF30DCE78A
:10040000480500202C2C0008F0B585B00624CDE965
:10041000010101AD039220462946ABBE0446631C90
:1004200002D0204605B0F0BD00F05CFD1326002789
:10043000054630463946ABBE064620462E6005B01E
:10044000F0BD00BF2DE9F041204B07461B680D466B
:10045000164684B00BB19A6BEAB1132F20D8DFF89F
:10046000708058F837305A1C1AD0CDE9025606244D
:10047000019301AD20462946ABBE0446631C16D04D
:1004800008EBC7004368321B14461A4442602046FA
:1004900004B0BDE8F081184600F06EFD132FDED9E0
:1004A00000F020FD09234FF0FF340360EFE700F078
:1004B00019FD13260027054630463946ABBE0646D1
:1004C00020462E6004B0BDE8F08100BF1C01002072
:1004D000C40900202DE9F043354B05461B688846CA
:1004E000144683B00BB19A6B12B3132D25D8314E3D
:1004F00056F83530591C20D0022C38D8012C30D079
:10050000022C21D04446E9460A270093019438463C
:100510004946ABBE07467B1C30D0002FB2BF4FF020
:10052000FF3406EBC5056C60204603B0BDE8F083E0
:10053000184600F021FD132DD9D900F0D3FC092372
:100540004FF0FF340360EFE70C24E94600932046A8
:100550004946ABBE0446621C1FD056F835304444B1
:10056000D2E706EBC502546818EB0404CBD500F0C3
:10057000B9FC16234FF0FF340360D5E700F0B2FC5E
:1005800013240026054620463146ABBE06463C46AF
:1005900020462E6003B0BDE8F08300F0A3FC1326D4
:1005A0000027054630463946ABBE06462E60BBE7FF
:1005B0001C010020C4090020FFF78CBFF0B585B0F6
:1005C0000524CDE9010101AD039220462946ABBEC9
:1005D0000446631C02D0204605B0F0BD00F082FC4A
:1005E00013260027054630463946ABBE0646204650
:1005F0002E6005B0F0BD00BF2DE9F0412B4B074642
:100600001B680D46164684B00BB19A6B12B3132FBC
:1006100025D8DFF89C8058F837305A1C1FD0CDE918
:1006200002560524019301AD20462946ABBE04467F
:10063000631C1BD0002C35DB08EBC7004368321B62
:100640001344B44218BF144643601DD0204604B082
:10065000BDE8F081184600F08FFC132FD9D900F0C7
:1006600041FC09234FF0FF340360EFE700F03AFC50
:1006700013260027054630463946ABBE06462046BF
:100680002E6004B0BDE8F08100F02CFC132600249D
:10069000054630462146ABBE064620462E6004B0D5
:1006A000BDE8F0814FF0FF34D0E700BF1C0100200F
:1006B000C4090020F0B583B00224019001AD2046AA
:1006C0002946ABBE0446631C02D0204603B0F0BDF1
:1006D00000F008FC13260027054630463946ABBE1D
:1006E000064620462E6003B0F0BD00BFF0B5234B98
:1006F00005461B6883B00BB19A6BF2B1132D21D85C
:100700001F4E56F835305A1C1CD06A1E012A03D8D9
:10071000B168326991421CD00224019301AF204696
:100720003946ABBE0446631C1BD01CB94FF0FF33E7
:1007300046F83530204603B0F0BD184600F01CFCEA
:10074000132DDDD900F0CEFB09234FF0FF340360F9
:10075000F0E700244FF0FF33204646F8353003B071
:10076000F0BD00F0BFFB1326002705463046394692
:10077000ABBE064620462E6003B0F0BD1C01002033
:10078000C4090020012070470E4A0346106810B5C6
:10079000A0B1694603448B4208D80B490B4C096849
:1007A000A14201D08B4201D8136010BD00F09AFB2A
:1007B0000C2203464FF0FF301A6010BD0449084672
:1007C0001160E6E7B40900204C050020ADDEFECA4A
:1007D000A01A0020F8B51D4B04461B680E460BB14D
:1007E0009A6BD2B1132C1DD8194850F8343001330C
:1007F00018D04FF4806273680C2543F4005300EB6B
:10080000C4047360B26428462146ABBE0446631C30
:100810000FD0346100242046F8BD184600F0ACFB30
:10082000132CE1D900F05EFB09234FF0FF34036085
:10083000F1E700F057FB13260027054630463946FE
:10084000ABBE064620462E60F8BD00BF1C0100204E
:10085000C40900200B4610B5002104465822184652
:10086000FFF79EFC01462046BDE81040FFF7B2BFEF
:1008700038B50C460546582200212046FFF790FC6B
:100880002846002100F012F8431C05460BD063688F
:10089000214643F401436360FFF79CFF034628466B
:1008A0001D46FFF723FF284638BD00BF2DE9F04164
:1008B000034600240F462F4E98B002E00134142C5A
:1008C00051D056F83450681CF8D107F42062B2F5C4
:1008D000206F0DF1080838D040F20162C7F30045DF
:1008E000B90748BF45F00205174218BF45F0040597
:1008F0003A0748BF25F00405184648BF45F00805EB
:10090000029301F00BF80395049001252846414617
:10091000ABBE0546002D09DB002206EBC40346F8FA
:1009200034505A60204618B0BDE8F08100F0DAFA81
:1009300013240027064620463946ABBE07462C4600
:100940002046376018B0BDE8F08118464146019353
:10095000FFF78EFF0130019BBED000F0C3FA1123D8
:100960002C460360DEE700F0BDFA18234FF0FF3499
:100970000360D7E7C40900200EB400B50199FFF762
:1009800095FF5DF804EB03B0704700BF2DE9F0431D
:10099000074688463E48002183B01646FFF786FF8B
:1009A0000446002132463846FFF7FAFB611C45D069
:1009B000384B186810B1836B002B43D0132C45D8EB
:1009C000354D55F83430013340D005EBC4090C25C2
:1009D00028464946ABBE05466A1C3AD0032D42DD87
:1009E000033DB5423FDD042220460DEB0201FFF737
:1009F00029FD032837DD9DF80430532B33D19DF8B2
:100A00000530482B2FD19DF80630462B2BD19DF871
:100A10000730422B27D1012241462046FFF75AFDDD
:100A2000002820DB324639462046FFF70BFD0346FF
:100A300020461C46FFF75AFE631C1DD0204603B01B
:100A4000BDE8F08300F098FA132CB9D94FF00009F3
:100A5000BDE700F047FA1326002705463046394621
:100A6000ABBE06462E6020464FF0FF34FFF73EFE39
:100A7000204603B0BDE8F08300F034FA13260027C7
:100A8000054630463946ABBE06462E60D6E700BF67
:100A9000302C00081C010020C409002030B50F4C88
:100AA00083B02068002801DB03B030BD00210122A3
:100AB0000B4D01A821602A60FFF768FF002809DDBF
:100AC0009DF8043003F0010003F0020320602B6066
:100AD00003B030BD206803B030BD00BF500500201A
:100AE0005405002030B50F4C83B02068002801DB8E
:100AF00003B030BD002101220B4D01A82960226006
:100B0000FFF744FF002809DD9DF8040000F0010311
:100B100000F002002B60206003B030BD206803B0FD
:100B200030BD00BF54050020500500202DE9F04FD6
:100B3000032300244C4E85B001964FF00108039327
:100B400001AD029440462946ABBE80464FF0FF32CD
:100B5000464F2346464CC7F8008044F83320013303
:100B6000142BFAD1DFF80C81D8F80030002B54DBBD
:100B70004BB9414A1168013167D03A68C4E9002392
:100B800005B0BDE8F08F4FF0030B042301964FF042
:100B90000109CDF80CB0029348462946ABBE824607
:100BA00008230196354ECDF80CB0C6F800A002938C
:100BB00048462946ABBE05460021DFF8BC90D8F870
:100BC0000030C9F80050013508BF3268616008BFC5
:100BD000C9F800203A688B42226012DA0122284DBF
:100BE00068462960C8F80020FFF7D0FE002838DDED
:100BF0009DF8003003F0010203F002032A60C8F8F8
:100C000000303BB10023D9F800203168C4E9033239
:100C1000A160636105B0BDE8F08F00210122DFF81B
:100C200060906846C9F80010C8F80020FFF7AEFED3
:100C3000002813DD9DF8003003F0010203F00203E9
:100C4000C9F80020C8F8003092E70C4938680968F4
:100C500020601160636005B0BDE8F08FD8F8003007
:100C600086E7D8F80030CCE7482C0008BC09002003
:100C7000C409002054050020B8090020C009002044
:100C80005005002008B500F02DF9582203464FF01A
:100C9000FF301A6008BD00BFF0B583B0009000F0CF
:100CA0003DFE0E246D46019020462946ABBE04460B
:100CB000631C18BF002402D0204603B0F0BD00F032
:100CC00011F913260027054630463946ABBE0646C5
:100CD00020462E6003B0F0BDF0B50D4650B104467D
:100CE0001126002730463946ABBE0646F317C4E945
:100CF0000063A76015B10023C5E900330020F0BDF3
:100D000030B51024002520462946ABBE04462046B7
:100D100030BD00BF70B51025002604462846314678
:100D2000ABBE05461CB1C4E90056C4E902662846BC
:100D300070BD00BF174B70B51B6805460BB19A6BB1
:100D4000E2B1132D1FD8144850F8353001331AD0B2
:100D5000092400EBC50520462946ABBE0446012CFC
:100D600020460AD000F0BEF813260024054630467F
:100D70002146ABBE064620462E6070BD184600F0E8
:100D8000FBF8132DDFD900F0ADF80922034600204F
:100D90001A6070BD1C010020C4090020F0B583B0AA
:100DA000D0B1009000F0BAFD12246D4601902046AB
:100DB0002946ABBE0446631C254611D0FF2C05D83E
:100DC00024B16500C5F30723A34202D1284603B02E
:100DD000F0BD6D00F6D1F9E70125284603B0F0BD5E
:100DE00000F080F813260027044630463946ABBE93
:100DF00006462660EAE700BFF0B585B00C460090D5
:100E000000F08CFD03462046CDE9013400F086FD5C
:100E10000F246D46039020462946ABBE0446631C52
:100E200006D0003C18BF01246442204605B0F0BD46
:100E300000F058F813260027054630463946ABBE69
:100E4000064620462E6005B0F0BD00BF014608B53D
:100E50004FF0FF30014A00F003F800BF2600020007
:100E600000B583B0CDE90021FFF718FE002814BFBC
:100E700020241824FFF712FE20B16D462046294693
:100E8000ABBE0446009D20462946ABBE044600BFCB
:100E9000062908B502D0034AFFF7E2FF024AFFF72E
:100EA000DFFF00BF260002002300020080B582B0F1
:100EB00000AFFFF73BFE084800F0CEFC074800F00B
:100EC000CBFC00237B6002E07B6801337B607B68A6
:100ED000034A9342F8DDF1E74C2C00086C2C000823
:100EE0009F860100014B1868704700BF1C0100205D
:100EF000014900F087B900BFC919000808B5436E61
:100F0000DA0702D483899B0501D5002008BD806DD6
:100F1000FFF72AFA002008BD08B5436EDA0702D4AD
:100F200083899B0501D5002008BD806DFFF724FA59
:100F3000002008BD682270B54D1E02FB05F50E4667
:100F400005F1740100F082F9044640B100210C3033
:100F5000C4E9016005F168022160FFF721F920462C
:100F600070BD00BF024B0349186800F04BB900BFC9
:100F70002C2C0008C91900082DE9F0478246394891
:100F8000FFF7F2F9DAF83840002C66D10423032287
:100F90003549DAF80450CAF83C10DFF8D090DFF891
:100FA000D080344F344E0AF53B71CAE9B921CAF8F2
:100FB000E0422146EB600822C5E90044C5E904444B
:100FC0006C66AC60AC6105F15C00FFF7E9F8C5E95F
:100FD0000759C5E90987EE6205F15800FFF7BCF92A
:100FE000DAF80850254B2146EB600822C5E9004499
:100FF000C5E904446C66AC60AC6105F15C00FFF7C8
:10100000CFF8C5E90759C5E90987EE6205F158002F
:10101000FFF7A2F9DAF80C50194B2146EB600822D1
:10102000C5E90044C5E904446C66AC60AC6105F1F7
:101030005C00FFF7B5F805F15800C5E90759C5E9A7
:101040000A76C5F82480FFF787F901230548CAF816
:101050003830BDE8F047FFF78FB90248BDE8F047E8
:10106000FFF78AB9AC090020F10E00088D180008BE
:10107000B5180008F5180008151900080900010046
:10108000120002002DE9F04107462D48FFF76CF9E8
:101090002C4B1E68B36B93B34FF0040806F53876FB
:1010A000D6E90134013B04D525E05A1C04F168045B
:1010B00021D0B4F90C50013B002DF6D1224B04F1A4
:1010C0005800E3606566FFF747F91D48FFF754F9DC
:1010D00008222946C4E90155C4E904552560A561E3
:1010E00004F15C00FFF75CF8C4E90C55C4E9115544
:1010F0002046BDE8F08135682DB12E46D0E7304658
:10110000FFF73AFFC8E74FF4D671384600F09EF873
:10111000044668B1056029460546C0F804800C30D5
:101120004FF4D072A060FFF73BF834602E46B7E76B
:1011300003483460FFF720F90C233B60D8E700BF79
:10114000A80900202C2C00080100FFFF0148FFF730
:101150000BB900BFA80900200148FFF70DB900BF77
:10116000A80900200148FFF7FFB800BFAC09002024
:101170000148FFF701B900BFAC09002008B50548D8
:10118000FFF7F2F8044B05491868BDE8084000F085
:1011900019B800BFA80900201C010020FD0E00089E
:1011A00008B5054B0549186800F00CF8BDE8084083
:1011B0000348FFF7E1B800BF1C010020190F000829
:1011C000A80900202DE9F0410026884600F538776F
:1011D000D7E90154013D0ED4A389013D012B06D965
:1011E000B4F90E30013302D02046C04706436B1CD1
:1011F00004F16804F0D13F68002FE9D13046BDE822
:10120000F08100BF2DE9F8434FF0000907468846FA
:1012100000F53876D6E90154013D10D4A389013D8B
:10122000012B08D9B4F90E30013304D021463846D9
:10123000C04749EA00096B1C04F16804EED1366826
:10124000002EE7D14846BDE8F88300BF2DE9F04FF6
:1012500001F10B05162D064683B025D8102900F2A2
:10126000B88000F09FFA102518224FF0020CB54FFD
:101270003A445368A2F108018B4200F0B7805A68E3
:10128000D96822F003021A449C683046E1608C6001
:10129000516803F1080441F00101516000F088FA3F
:1012A000204603B0BDE8F08F35F0070500F19180CE
:1012B000A94200F28E8000F075FAB5F5FC7FC0F00F
:1012C00094816B0A00F08C80042B00F26A81AB09D8
:1012D00003F1390C03F138044FEACC00994F38443C
:1012E00043680838984206D10CE0002980F2268134
:1012F000DB68984206D05A6822F00302511B0F297E
:10130000F3DDA4463C69DFF840E274457AD06268B8
:1013100022F00302531B0F2B00F37681002BC7E949
:1013200004EE80F26781B2F5007F80F0198101211F
:10133000D30852090B4491407A6857F833000A43A6
:1013400007EBC3010839A060E1607A6047F83340D9
:10135000C46001214FEAAC039940914259D811422F
:1013600006D12CF0030C490011420CF1040CFAD008
:1013700007EBCC0948466446D0F80C80404508D1BC
:101380001CE1002B80F22181D8F80C80404500F050
:101390001581D8F8042022F00302531B0F2BF0DD37
:1013A00008EB050145F00105C8F804503046D8E9BE
:1013B0000264F460A66043F00104C7E904114C60C4
:1013C000C1E902EE48F8023000F0F2F908F1080431
:1013D00002E00C2300243360204603B0BDE8F08F08
:1013E0004FF400704FF0400C3F2477E7D3689A42E7
:1013F00008BF0CF1020C7FF442AF3C69DFF848E112
:10140000744584D101217A684FEAAC039940914236
:10141000A5D9BC68636823F003094D4503D8A9EB3F
:1014200005030F2B7ADCDFF824B1494BDBF80020F1
:101430001B6801322B4404EB090A00F02F8103F5ED
:1014400080530F3323F47F6828F00F08414630465D
:1014500000F00AFA411C024600F0EF80824500F2DB
:10146000EA803C4B196841440846196000F0498104
:10147000DBF80010019301311BBFA2EB0A0A5044B4
:10148000CBF80020186012F0070B00F01181CBF1AF
:1014900008010A44CBF5805190440831A1EB0801C2
:1014A000C1F30B0A51463046009200F0DDF9421CB0
:1014B000DDE9002300F04B81801A00EB0A0819686F
:1014C00048F001005144BC42BA601960506000F01D
:1014D0002481B9F10F0F40F222814FF0050E6068B0
:1014E000A9F10C0C2CF0070C00F0010040EA0C00F4
:1014F0006060BCF10F0F04EB0C00C0E901EE00F2DC
:101500002E8114465068144B1A688A4238BF1960FD
:10151000124B1A688A4238BF196090E0621943F092
:10152000010345F0010565603046BA600834536038
:1015300000F03EF9204603B0BDE8F08FD9681A44A8
:10154000A2E600BF580500206005002060090020C9
:10155000940A0020640A00208C0A0020900A0020CF
:10156000B2F5206F4FEA52235FD3142B00F2B18003
:1015700003F15C01C9005B33781879580838884258
:1015800000F08F804B6823F00303934202D98968EF
:101590008842F7D1C8687A68C4E902108460CC60D8
:1015A000D7E6142B59D9542B00F29B802B0B03F157
:1015B0006F0C03F16E044FEACC008FE60134A307F1
:1015C00000F108007FF4D8AE53E04446424453682B
:1015D000D8F80C1043F00103536054F8083F30462C
:1015E000D9608B6000F0E4F8F6E64FEAD50C05F11F
:1015F00008023CE622445368304643F0010353603E
:1016000000F0D6F80834E7E6611945F00105656099
:1016100043F00105C7E904113046C1E902EE4D600F
:10162000A35000F0C5F80834D6E6930903F1390158
:10163000C9003833A0E7BC425ED0BC68606820F0C7
:1016400003084545A8EB050302D80F2B3FF766AF0B
:10165000304600F0ADF80024BEE603F15C0C03F167
:101660005B044FEACC0039E659F808394B4540F0A5
:1016700095801CF0030F0CF1FF3CF5D17B6823EA49
:1016800001037B60490099423FF6C3AE11B9C0E641
:10169000490004341942FBD0A44669E603F110085E
:1016A000D4E601229B109A407B681A437A6073E764
:1016B00002EB08014942C1F30B0A51463046009241
:1016C00000F0D2F8431CDDE900237FF4F5AEDA46E2
:1016D000F5E6542B26D8130B03F16F01C9006E33C6
:1016E0004AE7B3F5AA7F26D8EB0B03F1780C03F198
:1016F00077044FEACC00F1E5294B186840441860A4
:10170000B6E6CAF30B0CBCF1000F7FF4B1AEBC68B7
:10171000C84448F001006060F5E61446F3E6012392
:10172000536095E7B3F5AA7F24D8D30B03F1780172
:10173000C900773320E740F25452934224D8AB0CCF
:1017400003F17D0C03F17C044FEACC00C6E5ABF15C
:10175000080BD8444FF0000AA8EB0208AFE604F1EA
:1017600008013046009300F0E7FABC68009B60680F
:101770001968C8E640F254518B420BD8930C03F120
:101780007D01C9007C33F7E64FF47E704FF07F0C8B
:101790007E24A3E54FF47E717E23EDE67B6871E73E
:1017A000640A00200148FEF7DFBD00BFA409002045
:1017B0000148FEF7E1BD00BFA409002030B5054691
:1017C00089B008460C4600F0A9F801210223214AFD
:1017D00004940692AA6B04AC059008440194079106
:1017E000AC680293039022B3636E13F0010FB4F957
:1017F0000C309AB201D1980525D5910406D4626EB9
:1018000043F4005322F40052A3816266284601AAE1
:10181000214600F091FB636E002814BF4FF0FF35A6
:101820000A25DA0702D4A3899B0506D5284609B004
:1018300030BD2846FFF7A0FBD6E7A06DFEF79CFD64
:10184000284609B030BDA06DFEF78EFDB4F90C300E
:101850009AB2D2E77C2C0008024B01461868FFF7C9
:10186000ADBF00BF1C010020002238B5064D044664
:1018700008462A60FEF788FF431C00D038BD2B685D
:10188000002BFBD0236038BD980A002010B50C4611
:10189000B1F90E1000F018FE002803DB236D03449D
:1018A000236510BDA38923F48053A38110BD00BF1D
:1018B000002070472DE9F0410C46B1F90C101F468D
:1018C000CB05054616460BD421F48051A1813B4639
:1018D00032462846B4F90E10BDE8F04100F04CB88D
:1018E000B4F90E100223002200F09EFCB4F90C1093
:1018F000EAE700BF10B50C46B1F90E1000F094FCF9
:10190000A389421C0EBF23F4805343F48053206507
:10191000A38110BDB1F90E1000F044B820F003010E
:1019200010F00300C0F1000051F8043B00F1040C7A
:101930004FEACC0C6FF000021CBF22FA0CF21343EA
:101940004FF0010C4CEA0C2C4CEA0C4CA3EB0C02B3
:1019500022EA030212EACC1204BF51F8043B04301D
:10196000F4D0C2F1000102EA0102B2FA82F2C2F13D
:101970001F0200EBD200704738B50C46114600221A
:101980008446074D20462A601A466446FEF734FE18
:10199000431C00D038BD2B68002BFBD0236038BD22
:1019A000980A0020002238B5064D044608462A60F1
:1019B000FEF79CFE431C00D038BD2B68002BFBD0EB
:1019C000236038BD980A002070B500294BD0064628
:1019D0000C4610B1836B002B48D0636ED80734D50A
:1019E000B4F90C30002B3ED02146304600F05AF8B6
:1019F000E36A054633B13046E16998470028B8BF2D
:101A00004FF0FF35A3891A063BD4216B41B104F195
:101A10004003994202D0304600F08EF90023236340
:101A2000616C21B1304600F087F900236364FFF751
:101A30008DFB0022636EA281DB0727D5A06DFEF728
:101A40008FFCFFF789FB284670BDA3899905CBD48D
:101A5000A06DFEF789FCB4F90C30002BC4D1656E83
:101A600015F0010508D00025284670BDFFF784FA5F
:101A7000636ED807B4D4E8E7A06DFEF77DFC284676
:101A800070BD3046216900F057F9BEE7A06DFEF742
:101A900073FCD3E7024B01461868FFF795BF00BF00
:101AA0001C010020B1F90C20F8B50C4611070746BF
:101AB00043D4636842F40062002BA2815BDDA56A17
:101AC000002D56D000233E683B6093B212F4805242
:101AD00055D101233846E169A847421C65D0A38946
:101AE000A56A5B0705D56368C01A236B0BB1E36B6E
:101AF000C01A0246E16900233846A847411C40D17C
:101B00003B68002B3DD01D2B01D0162B54D1002259
:101B1000A38923F40063A3812369C4E90032216B04
:101B20003E6031B304F14003994202D0384600F0E0
:101B300003F9002318462363F8BD2669CEB193B29A
:101B40009A0718BF0023256808BF63692660AD1B8C
:101B5000A3600CE02B463246D4F824C03846E16935
:101B6000E047B0F1000CA5EB0C05664416DD002D36
:101B7000F0DC0020F8BDE36B002BA0DCF9E7206D62
:101B8000AFE70022B4F90C30626023F400632269ED
:101B9000A381DB042260C2D52065C0E7A3894FF092
:101BA000FF3043F04003A381F8BD3B68002B96D083
:101BB0001D2B06D0162B04D0A38943F04003A3812C
:101BC000F8BD00203E60F8BD38B505460C4608B1AA
:101BD000836BA3B1B4F90C00B8B1636EDB0701D419
:101BE000810515D528462146FFF75CFF636E054643
:101BF000DA0702D4A3899B050ED5284638BDFFF726
:101C0000BBF9B4F90C000028E7D10546284638BDD9
:101C1000A06DFEF7A9FBE5E7A06DFEF7ADFB28463A
:101C200038BD00BF38B548B3184B04461D680DB128
:101C3000AB6BBBB1B4F90C0088B1636EDB0701D4A8
:101C4000810513D528462146FFF72CFF636E054614
:101C5000DA0702D4A3899B050CD5284638BD054672
:101C6000284638BD2846FFF787F9E3E7A06DFEF761
:101C70007BFBE7E7A06DFEF77FFBEEE7044B054932
:101C80001868BDE83840FFF7BDBA00BF1C0100204E
:101C90002C2C0008C91B0008F8B50C46234F06463B
:101CA000FFF780FDBB685D68C4F57E6325F0030522
:101CB0000F332B4423F47F6323F00F03A3F58054E9
:101CC000B4F5805F07DB00213046FFF7CDFDBB6830
:101CD0002B44984204D03046FFF76AFD0020F8BD3F
:101CE00030466142FFF7C0FD01300DD0104ABB689D
:101CF0002D1B45F001055D60136830461B1B13600A
:101D0000FFF756FD0120F8BD00213046FFF7ACFD7E
:101D1000BA68831A0F2BDEDD43F001035360054BD5
:101D200003491B68C01A0860D5E700BF58050020AA
:101D3000640A00206009002000295ED0F8B50C4636
:101D40000646FFF72FFD54F8042C784FA4F1080540
:101D500022F001016818D7F808C04368844523F0D1
:101D6000030300F08780D207436034D454F8082C72
:101D700007F10804AD1A1144AA68A24268D000EB2A
:101D8000030CDCF804E0D5F80CC01EF0010FC2F81B
:101D90000CC0CCF8082000F0918041F001036B608A
:101DA0000160B1F5007F31D24A09CB080121914091
:101DB0007A6801331143796007EBC30257F8331097
:101DC000083AC5E9021247F83350CD603046BDE805
:101DD000F840FFF7EDBCC2185268D2070ED4194480
:101DE00007F108048368A34270D0C268DA60936088
:101DF00041F001036B606950D3E7704741F0010384
:101E0000B1F5007F44F8043C0160CDD3B1F5206FFB
:101E10004FEA512347D28B0903F1390003F138020D
:101E2000C300F818FB580838984258D05A6822F076
:101E300003028A4202D99B689842F7D1D868C5E963
:101E4000023085603046DD60BDE8F840FFF7B0BC89
:101E5000C2185268D20763D40B44D0E90212CA6098
:101E6000916043F001026A603046EB50BDE8F840F3
:101E7000FFF79EBC0B44D10707D454F8082CAD1AC9
:101E80001344D5E90212CA60916043F001026A600E
:101E9000274ABD6012689A4298D8264B3046196886
:101EA000FFF7FAFE92E7142B0AD9542B1FD80B0B1D
:101EB00003F16F0003F16E02C300B2E7194491E72A
:101EC00003F15C0003F15B02C300AAE741F00103E8
:101ED000C7E90455C5E902446B60695076E7012102
:101EE000921001FA02F279680A437A60A7E7B3F523
:101EF000AA7F06D8CB0B03F1780003F17702C30069
:101F00008FE740F25452934206D88B0C03F17D00C8
:101F100003F17C02C30084E74FF47E737E2280E7E6
:101F200041F001036B60016050E700BF58050020DD
:101F300064090020940A00209368002B00F0B78009
:101F40002DE9F04FB1F90C300C46190780461746C1
:101F500083B098B225D523691BB310F002033D6806
:101F60002DD04FF0000B5E46DFF8B8A2002E00F037
:101F70008B80564533465A4628BF53464046E16952
:101F8000D4F824C0E047002840F38780BB6883442E
:101F90001B1A361ABB60002BE8D1002003B0BDE845
:101FA000F08F2146404600F0FFFC002840F03681CB
:101FB000B4F90C303D6898B210F00203D1D110F0A2
:101FC000010976D14E46002E5AD08205D4F808B0C9
:101FD00040F1B580B3455A4600F2CD8010F4906FC1
:101FE00000F0CB8023682169A3EB010B636903EB4D
:101FF000430A0AEBDA7A0BF101034FEA6A0A334427
:102000005345524684BF9A465246430540F1EA8002
:1020100011464046FFF71AF9002800F0F9805A46A9
:102020002169019000F05EF9A289019B22F490627F
:1020300042F08002A28103EB0B0023613246AAEB3F
:102040000B03B346C4F814A0A3602060B246002678
:102050004946019200F0BCF9A3682168019AA3EBFC
:102060000B030A44A3602260B868D144A0EB0A00C5
:10207000B860002891D0B4F90C0080B2002EA4D131
:10208000D5E9009608359EE7D5E900B608356DE735
:1020900021464046FFF798FD80B3B4F90C304FF06D
:1020A000FF3043F04003A38103B0BDE8F08F002070
:1020B00070471E46AA46994618461D4656B3002844
:1020C00032D04A4620682169B24228BF324688424F
:1020D000636904D9A16803EB010B5A4574DC934290
:1020E00065DC2A464046E169D4F824C0E047B0F1F7
:1020F000000BD2DDB9EB0B09CAD00120BB685D44EF
:10210000A3EB0B03A6EB0B06BB60002B3FF445AF24
:10211000002ED4D10AF1080353F8046C9A4653F800
:10212000085C0833002EF7D032460A21284600F01A
:1021300091F8002869D00130A0EB0509C1E72068BB
:10214000236998421BD86369B34218D86FF0004CDA
:10215000B44528BFB4469CFBF3FC4A4603FB0CF392
:102160004046E169D4F824C0E047B0F1000A94DDAC
:10217000A6EB0A0678E7B3463246206866E7B34521
:10218000DA4628BFB2464946524600F021F9A36814
:102190002268A3EB0A035244A3602260002BE7D11C
:1021A00021464046FFF710FD0028E1D075E729469B
:1021B0009346019200F00CF9A368019A9B1AA36060
:1021C00023681A44226095E729465A4600F000F930
:1021D000236821465B4440462360FFF7F5FC002856
:1021E00088D05AE7404600F085F9034600287FF47E
:1021F00022AF40462169FFF79FFD0C22B4F90C3055
:10220000C8F8002023F0800349E7721C914659E783
:102210000C22B4F90C30C8F8002040E74FF0FF3032
:10222000BCE600BF00FCFF7F38B50C46114600221B
:102230008446074D20462A601A466446FEF7BCF9DC
:10224000431C00D038BD2B68002BFBD0236038BD69
:10225000980A00205FFA81FC810710D00346511EC6
:102260002AB90AE09A0718460AD0013905D3184658
:1022700013F8012B6245F5D17047002070471146D5
:1022800003290CD80029F8D00346014401E08B4211
:10229000F3D0184613F8012B6245F8D1ECE702465B
:1022A00010B54CEA0C2444EA044410460368043296
:1022B0006340A3F1013E2EEA030313F0803F04D1F3
:1022C000043903291046F0D851B10346014401E016
:1022D0008B4205D0184613F8012B6245F8D110BD8A
:1022E000002010BD844641EA000313F0030349D1E6
:1022F000403A23D30B6803604B6843608B6883606C
:10230000CB68C3600B6903614B6943618B6983616F
:10231000CB69C3610B6A03624B6A43628B6A836257
:10232000CB6AC3620B6B03634B6B43638B6B83633F
:10233000CB6BC36340304031403ADBD230320BD3F9
:102340000B6803604B6843608B688360CB68C36035
:1023500010301031103AF3D20C3205D351F8043B4F
:1023600040F8043B043AF9D2043208D0D2071CBF2B
:1023700011F8013B00F8013B01D30B880380604654
:10238000704700BF082A13D38B07B1D010F00303A6
:10239000AED0C3F10403D21ADB071CBF11F8013B16
:1023A00000F8013BA4D331F8023B20F8023B9FE741
:1023B000043AD9D3013A11F8013B00F8013BF9D2B4
:1023C0000B7803704B7843708B788370604670474E
:1023D00088420DD98B1883420AD900EB020CBAB19E
:1023E000624613F801CD994202F801CDF9D1704748
:1023F0000F2A0ED8034602F1FF3C4AB10CF1010C42
:10240000013B8C4411F8012B614503F8012FF9D1F0
:10241000704740EA01039B074FD1A2F1100370B54A
:1024200001F1200C23F00F0501F1100E00F1100452
:10243000AC441B095EF8105C0EF1100E44F8105C01
:102440005EF81C5C103444F81C5C5EF8185C44F8C0
:10245000185C5EF8145CE64544F8145CEAD101337C
:1024600012F00C0F01EB031102F00F0400EB031349
:1024700027D08E46043C24F003064FEA940C1E44F9
:102480001C1F5EF8045B44F8045FB442F9D10CF100
:10249000010402F0030203EB840301EB840102F167
:1024A000FF3C4AB10CF1010C013B8C4411F8012BAB
:1024B000614503F8012FF9D170BD034602F1FF3CDD
:1024C0009CE72246EBE700BF38B50C4611460022D8
:1024D0008446074D20462A601A466446FDF7B2FF3F
:1024E000431C00D038BD2B68002BFBD0236038BDC7
:1024F000980A00202DE9F84F1646002900F0988030
:1025000006F10B0580460C46FFF74CF9162D5DD8F9
:1025100010252A46AE425ED854F8041CA4F10809DE
:1025200021F00307974262DABC4B09EB0700D3F8AE
:1025300008C0844500F09780D0F804C02CF0010357
:1025400003445B68DB0768D42CF0030C07EB0C0337
:10255000934247DACB0710D454F8083CA9EB030A9E
:10256000DAF8043023F003018C44BC44944580F233
:1025700011817B18934280F2E88031464046FEF795
:1025800065FE0646E0B154F8043CA0F1080223F0D1
:1025900001034B44934200F0D2803A1F242A00F2F8
:1025A000F580132A00F2AC800346224611681960B8
:1025B0005168596092689A6021464046FFF7BCFB1B
:1025C0004046FFF7F5F83046BDE8F88F25F00705DF
:1025D000002D2A469EDA0C230026C8F8003030462B
:1025E000BDE8F88F1F46D0E90223D3609A607B1BB9
:1025F0000F2B22D8D9F8043003F001033B43C9F86C
:1026000004304F447B6843F001037B60264640461C
:10261000FFF7CEF83046BDE8F88FC907ADD454F8BF
:10262000083CA9EB030ADAF8041021F00301A0E743
:102630001146BDE8F84FFEF709BED9F8041043F083
:10264000010301F001012943C9F8041009EB050158
:102650004B604F447B68404643F0010308317B6088
:10266000FFF76AFBD2E7DCF8040020F0030B07EB6E
:102670000B0C05F1100084454DDAC9073FF57DAF1D
:1026800054F8081CA9EB010ADAF8041021F0030140
:102690008B44BB4458453FF76CAF5646DAF80C10F4
:1026A00056F8080F3A1F242AC160886000F2DB80C8
:1026B000132A40F2D68021681B2ACAF808106168E4
:1026C000CAF80C1000F2E08008340AF11002216808
:1026D000116061685160A1689160ABEB05020AEB83
:1026E000050142F0010299604A60DAF80430404680
:1026F00003F001031D43CAF80450FFF759F86EE7D1
:1027000023681B2A03606368436068D804F10802E9
:1027100000F108034AE709EB0502ACEB050C9A60EF
:102720004CF00103536054F8043C404603F00103AD
:102730001D4344F8045CFFF73BF826464FE750F88A
:10274000043C23F003031F4451E75646DAF80C100B
:1027500056F8080F3A1F242AC16088604CD8132A03
:1027600048D921681B2ACAF808106168CAF80C10F9
:1027700056D808340AF110021F462368D146136068
:1027800063685360A3683446936030E72146FFF7DF
:102790001FFE11E75646D0E90213CB60996056F848
:1027A000081FDAF80C303A1F242ACB6099602DD824
:1027B000132A29D923681B2ACAF808306368CAF883
:1027C0000C3042D808340AF11003226867461A60B8
:1027D0006268D1465A60A26834469A6007E7A368E7
:1027E000242A8360E368C36026D004F1100200F15C
:1027F0001003DBE63246BFE7214630461F46D1468E
:10280000FFF7E6FD3446F2E63346DEE72146304682
:102810006746D146FFF7DCFD3446E8E65805002060
:10282000A168242ACAF81010E168CAF8141020D050
:1028300010340AF118029FE7236904F118020361BA
:102840006369436100F11803B0E6A368242ACAF85B
:102850001030E368CAF8143022D010340AF118039B
:10286000B3E7324633E721463046FFF7B1FD174B59
:1028700033E722691834CAF8182054F8042CCAF82F
:102880001C200AF1200277E7A168242ACAF8101058
:10289000E168CAF814100ED010340AF1180216E7D5
:1028A00023691834CAF8183054F8043CCAF81C30AC
:1028B0000AF1200389E722691834CAF8182054F86D
:1028C000042CCAF81C200AF1200200E75805002059
:1028D0002DE9F0410E680C460546BEB137688FB150
:1028E000D7F80080B8F1000F08D0D8F8001009B16F
:1028F000FFF7EEFF41462846FFF71EFA3946284605
:10290000FFF71AFA31462846FFF716FA21462846FD
:10291000BDE8F041FFF710BA224B1B68834240D05C
:10292000C16C70B5054681B100268C593CB1214679
:1029300024682846FFF700FA002CF8D1E96C043629
:10294000802EF2D12846FFF7F7F9296C11B12846FD
:10295000FFF7F2F9D5F8484154B105F5A676B4422F
:1029600006D0214624682846FFF7E6F9A642F8D1AA
:10297000696D11B12846FFF7DFF9AB6B83B12846CB
:10298000EB6B9847D5F8E04254B1216811B1284665
:10299000FFF79EFF21462846BDE87040FFF7CCB9FF
:1029A00070BD70471C01002038B5334B05461B68CD
:1029B0000C460BB19A6B12B3B4F90C3018079AB2EB
:1029C00025D5216900292DD012F0010007D000255E
:1029D0006069A5604042A06139B1002038BD95070B
:1029E00058BF6069A0600029F7D1120658BF084699
:1029F000F4D543F040034FF0FF30A38138BD1846B3
:102A0000FEF7BAFAB4F90C3018079AB2D9D4D10645
:102A10002AD5520714D4216943F00803A3819AB23E
:102A20000029D1D102F42070B0F5007FCCD021462E
:102A3000284600F023F8B4F90C3021699AB2C3E7B4
:102A4000216B51B104F14002914204D02846FFF7B6
:102A500073F9B4F90C30002222630022216923F0BB
:102A60002403C4E90012D7E7092243F040032A6097
:102A70004FF0FF30A38138BD1C0100202DE9F0414B
:102A80008B890C46990796B008D5012204F14303BF
:102A9000C4E90432236016B0BDE8F081B4F90E1029
:102AA0000646002927DB6A4600F088F8002821DB6B
:102AB000019D4FF4806805F47045A5F50055B5FA01
:102AC00085F54FF400676D0941463046FEF7BEFBC1
:102AD000B4F90C30F0B1204A43F08003F263C4F83B
:102AE0001480A3812060206135BB3B43A38116B0D5
:102AF000BDE8F081A38913F0800519D04FF040089C
:102B0000304641460025FEF7A1FB2F46B4F90C30B4
:102B10000028E0D19A05BED4012123F0030304F17B
:102B2000430243F00203C4E90421A3812260B2E717
:102B30004FF480682F46C7E73046B4F90E1000F016
:102B400051F810B9B4F90C30CFE7A38923F003038F
:102B500043F001031BB2C8E7F10E000870B50C4644
:102B6000B1F90E10154600291E4696B014DB6A46D0
:102B700000F024F800280FDB019A4FF4806302F480
:102B80007042A2F50052B2FA82F24FF4006052098C
:102B900032602B6016B070BD0023B4F90C103360A6
:102BA00011F0800004D0402218462A6016B070BD93
:102BB0004FF480632B6016B070BD00BF70B5002667
:102BC000074D0446084611462E60FDF743FE431CA0
:102BD00000D070BD2B68002BFBD0236070BD00BF00
:102BE000980A0020002238B5064D044608462A609F
:102BF000FEF7A0F8431C00D038BD2B68002BFBD09B
:102C0000236038BD980A00203B3E0B3E103E253E17
:102C1000333E033E063E143E0E3E0D3E243E123E23
:102C2000273E023E183E093E0A3E000020010020D9
:102C30003A73656D69686F7374696E672D66656157
:102C400074757265730000003A747400F09F948686
:102C500020426C696E6B79206669726D776172656E
:102C6000207374617274656421000000546F67679B
:102C70006C696E67204C45442E2E2E000A00000021
:102C80003B3E0B3E103E253E333E033E063E143E89
:102C90000E3E0D3E243E123E273E023E183E093EA9
:042CA0000A3E0000E8
:0C2CA400F8B500BFF8BC08BC9E467047A5
:0C2CB000F8B500BFF8BC08BC9E46704799
:042CBC000000000014
:082CC00080D3FF7F010000003A
:102CC80000000000000000000000000000000000FC
:102CD80000000000000000000000000000000000EC
:102CE80000000000000000000000000000000000DC
:102CF80000000000000000000000000000000000CC
:102D080000000000000000000000000000000000BB
:102D180000000000000000000000000000000000AB
:102D2800000000000000000000000000000000009B
:102D3800000000000000000000000000000000008B
:102D4800000000000000000000000000000000007B
:102D5800000000000000000000000000000000006B
:102D6800000000000000000000000000000000005B
:102D7800000000000000000000000000000000004B
:102D8800000000000000000000000000000000003B
:102D9800000000000000000000000000000000002B
:102DA800000000000000000000000000000000001B
:102DB800000000000000000000000000000000000B
:102DC80000000000000000000000000000000000FB
:102DD8000000000014000020FF0000002001002077
:102DE800000000000C04002074040020DC04002013
:102DF80000000000000000000000000000000000CB
:102E080000000000000000000000000000000000BA
:102E180000000000000000000000000000000000AA
:102E2800000000000000000000000000000000009A
:102E3800000000000000000000000000000000008A
:102E4800000000000000000000000000000000007A
:102E5800000000000000000000000000000000006A
:102E6800000000000000000000000000000000005A
:102E7800000000000000000000000000000000004A
:102E88000000000000000000010000000000000039
:102E98000E33CDAB34126DE6ECDE05000B000000FE
:102EA800000000000000000000000000000000001A
:102EB800000000000000000000000000000000000A
:102EC80000000000000000000000000000000000FA
:102ED80000000000000000000000000000000000EA
:10320800000000000000000098090020ADDEFECAA2
:10321800FFFFFFFFFFFFFFFF0000000000000000AE
:103228005805002058050020600500206005002092
:103238006805002068050020700500207005002042
:1032480078050020780500208005002080050020F2
:1032580088050020880500209005002090050020A2
:103268009805002098050020A0050020A005002052
:10327800A8050020A8050020B0050020B005002002
:10328800B8050020B8050020C0050020C0050020B2
:10329800C8050020C8050020D0050020D005002062
:1032A800D8050020D8050020E0050020E005002012
:1032B800E8050020E8050020F0050020F0050020C2
:1032C800F8050020F8050020000600200006002070
:1032D800080600200806002010060020100600201E
:1032E80018060020180600202006002020060020CE
:1032F800280600202806002030060020300600207E
:10330800380600203806002040060020400600202D
:1033180048060020480600205006002050060020DD
:10332800580600205806002060060020600600208D
:10333800680600206806002070060020700600203D
:1033480078060020780600208006002080060020ED
:10335800880600208806002090060020900600209D
:103368009806002098060020A0060020A00600204D
:10337800A8060020A8060020B0060020B0060020FD
:10338800B8060020B8060020C0060020C0060020AD
:10339800C8060020C8060020D0060020D00600205D
:1033A800D8060020D8060020E0060020E00600200D
:1033B800E8060020E8060020F0060020F0060020BD
:1033C800F8060020F806002000070020000700206B
:1033D8000807002008070020100700201007002019
:1033E80018070020180700202007002020070020C9
:1033F8002807002028070020300700203007002079
:103408003807002038070020400700204007002028
:1034180048070020480700205007002050070020D8
:103428005807002058070020600700206007002088
:103438006807002068070020700700207007002038
:1034480078070020780700208007002080070020E8
:103458008807002088070020900700209007002098
:103468009807002098070020A0070020A007002048
:10347800A8070020A8070020B0070020B0070020F8
:10348800B8070020B8070020C0070020C0070020A8
:10349800C8070020C8070020D0070020D007002058
:1034A800D8070020D8070020E0070020E007002008
:1034B800E8070020E8070020F0070020F0070020B8
:1034C800F8070020F8070020000800200008002066
:1034D8000808002008080020100800201008002014
:1034E80018080020180800202008002020080020C4
:1034F8002808002028080020300800203008002074
:103508003808002038080020400800204008002023
:1035180048080020480800205008002050080020D3
:103528005808002058080020600800206008002083
:103538006808002068080020700800207008002033
:1035480078080020780800208008002080080020E3
:103558008808002088080020900800209008002093
:103568009808002098080020A0080020A008002043
:10357800A8080020A8080020B0080020B0080020F3
:10358800B8080020B8080020C0080020C0080020A3
:10359800C8080020C8080020D0080020D008002053
:1035A800D8080020D8080020E0080020E008002003
:1035B800E8080020E8080020F0080020F0080020B3
:1035C800F8080020F8080020000900200009002061
:1035D800080900200809002010090020100900200F
:1035E80018090020180900202009002020090020BF
:1035F800280900202809002030090020300900206F
:10360800380900203809002040090020400900201E
:1036180048090020480900205009002050090020CE
:08362800FFFFFFFF000002009C
:043630002500000869
:043634000100000889
:04363800450200083F
:0400000508000000EF
:00000001FF
